{
  "address": "0x30ddee2e04d5Fed8273459211433Db2eC882BE35",
  "abi": [
    {
      "anonymous": false,
      "inputs": [
        {
          "indexed": true,
          "internalType": "address",
          "name": "company",
          "type": "address"
        }
      ],
      "name": "CompanyCreated",
      "type": "event"
    },
    {
      "inputs": [
        {
          "internalType": "uint256",
          "name": "",
          "type": "uint256"
        }
      ],
      "name": "companies",
      "outputs": [
        {
          "internalType": "address",
          "name": "",
          "type": "address"
        }
      ],
      "stateMutability": "view",
      "type": "function"
    },
    {
      "inputs": [],
      "name": "companyCount",
      "outputs": [
        {
          "internalType": "uint256",
          "name": "",
          "type": "uint256"
        }
      ],
      "stateMutability": "view",
      "type": "function"
    },
    {
      "inputs": [
        {
          "internalType": "address",
          "name": "_holdingsToken",
          "type": "address"
        },
        {
          "internalType": "address",
          "name": "_companyOwner",
          "type": "address"
        }
      ],
      "name": "createCompany",
      "outputs": [
        {
          "internalType": "address",
          "name": "company",
          "type": "address"
        }
      ],
      "stateMutability": "nonpayable",
      "type": "function"
    },
    {
      "inputs": [],
      "name": "getCompaniesCount",
      "outputs": [
        {
          "internalType": "uint256",
          "name": "count",
          "type": "uint256"
        }
      ],
      "stateMutability": "view",
      "type": "function"
    },
    {
      "inputs": [
        {
          "internalType": "uint256",
          "name": "index",
          "type": "uint256"
        }
      ],
      "name": "getCompany",
      "outputs": [
        {
          "internalType": "address",
          "name": "company",
          "type": "address"
        }
      ],
      "stateMutability": "view",
      "type": "function"
    }
  ],
  "transactionHash": "0x44f5636a6cc4de8d652d584d753c211a85ee12d72e038a59fe94ba8f5ab3e89d",
  "args": [],
  "numDeployments": 1,
  "solcInputHash": "9ad7b4b93a5e63d2fc427a2de16d3b6f",
  "bytecode": "0x608060405234801561001057600080fd5b50612524806100206000396000f3fe608060405234801561001057600080fd5b50600436106100575760003560e01c80632813d19d1461005c57806357d13917146100a257806385a0e59d146100cb5780638e75dd47146100de578063ccb0a334146100f5575b600080fd5b61008561006a3660046101ae565b6000602081905290815260409020546001600160a01b031681565b6040516001600160a01b0390911681526020015b60405180910390f35b6100856100b03660046101ae565b6000908152602081905260409020546001600160a01b031690565b6100856100d93660046101e3565b6100fd565b6100e760015481565b604051908152602001610099565b6001546100e7565b600080838360405161010e906101a1565b6001600160a01b03928316815291166020820152604001604051809103906000f080158015610141573d6000803e3d6000fd5b5060015460009081526020819052604080822080546001600160a01b0319166001600160a01b0385169081179091559051929350917faf00cebe9bcf143d4aaf9af981db775325400dfff1f9916c76b5d17d72ffc94e9190a29392505050565b6122d88061021783390190565b6000602082840312156101c057600080fd5b5035919050565b80356001600160a01b03811681146101de57600080fd5b919050565b600080604083850312156101f657600080fd5b6101ff836101c7565b915061020d602084016101c7565b9050925092905056fe60a06040523480156200001157600080fd5b50604051620022d8380380620022d88339810160408190526200003491620001ad565b6200003f336200005f565b6001600160a01b0382166080526200005781620000af565b5050620001e5565b600080546001600160a01b038381166001600160a01b0319831681178455604051919092169283917f8be0079c531659141344cd1fd0a4f28419497f9722a3daafe3b4186f6b6457e09190a35050565b620000b962000132565b6001600160a01b038116620001245760405162461bcd60e51b815260206004820152602660248201527f4f776e61626c653a206e6577206f776e657220697320746865207a65726f206160448201526564647265737360d01b60648201526084015b60405180910390fd5b6200012f816200005f565b50565b6000546001600160a01b031633146200018e5760405162461bcd60e51b815260206004820181905260248201527f4f776e61626c653a2063616c6c6572206973206e6f7420746865206f776e657260448201526064016200011b565b565b80516001600160a01b0381168114620001a857600080fd5b919050565b60008060408385031215620001c157600080fd5b620001cc8362000190565b9150620001dc6020840162000190565b90509250929050565b6080516120c96200020f6000396000818161024b01528181610382015261065201526120c96000f3fe60806040523480156200001157600080fd5b5060043610620001095760003560e01c80639047bf5811620000a3578063d3c6e8f6116200006e578063d3c6e8f614620001f4578063f2fde38b146200020b578063f5c1d7f21462000222578063fc0c546a146200024557600080fd5b80639047bf5814620001be578063906ec2c714620001c9578063aa62c4c514620001e0578063b7ec1a3314620001ea57600080fd5b8063518c9f5b11620000e4578063518c9f5b1462000168578063715018a6146200018b5780638c65c81f14620001955780638da5cb5b14620001ac57600080fd5b80630eaecba5146200010e578063127f0b3f146200011a5780634739326b1462000138575b600080fd5b620001186200026d565b005b620001256104505481565b6040519081526020015b60405180910390f35b6200014f62000149366004620009d0565b6200041d565b6040516001600160a01b0390911681526020016200012f565b620001256200017936600462000a07565b60026020526000908152604090205481565b620001186200043f565b6200014f620001a6366004620009d0565b62000457565b6000546001600160a01b03166200014f565b620001256103eb5481565b6200014f620001da36600462000a51565b62000469565b6200011862000630565b620001256200063a565b620001186200020536600462000bb9565b620006cd565b620001186200021c36600462000a07565b62000897565b620001256200023336600462000a07565b60016020526000908152604090205481565b6200014f7f000000000000000000000000000000000000000000000000000000000000000081565b6200027762000916565b6000620002836200063a565b905060005b6103eb54811015620004195760006003826103e88110620002ad57620002ad62000c2c565b01546001600160a01b0316600081815260026020526040902054909150811580620002ee57506001600160a01b038216600090815260026020526040902054155b15620002fa5750505050565b838111156200035c5760405162461bcd60e51b8152602060048201526024808201527f4e6f7420656e6f756768742062616c616e636520746f20636f76657220706179604482015263726f6c6560e01b60648201526084015b60405180910390fd5b60405163a9059cbb60e01b81526001600160a01b038381166004830152602482018390527f0000000000000000000000000000000000000000000000000000000000000000169063a9059cbb906044016020604051808303816000875af1158015620003cc573d6000803e3d6000fd5b505050506040513d601f19601f82011682018060405250810190620003f2919062000c42565b50620003ff818562000c78565b935050508080620004109062000c94565b91505062000288565b5050565b6003816103e881106200042f57600080fd5b01546001600160a01b0316905081565b6200044962000916565b62000455600062000972565b565b6103ec81606481106200042f57600080fd5b60006001600160a01b038616620004c35760405162461bcd60e51b815260206004820152601d60248201527f4f776e657220616464726573732063616e6e6f74206265207a65726f2e000000604482015260640162000353565b60008411620005245760405162461bcd60e51b815260206004820152602660248201527f476f616c20616d6f756e74206d7573742062652067726561746572207468616e604482015265103d32b9379760d11b606482015260840162000353565b30858585856040516200053790620009c2565b6200054795949392919062000cb0565b604051809103906000f08015801562000564573d6000803e3d6000fd5b506103ec61045054606481106200057f576200057f62000c2c565b0160006101000a8154816001600160a01b0302191690836001600160a01b0316021790555060006103ec6104505460648110620005c057620005c062000c2c565b015461045080546001600160a01b0390921692506000620005e18362000c94565b9190505550866001600160a01b0316816001600160a01b03167ffa4f2ad36c435c1b495aab7c3221c07187437a614bbc74ce986d8abfaf73e44660405160405180910390a39695505050505050565b6200045562000916565b6040516370a0823160e01b81523060048201526000907f00000000000000000000000000000000000000000000000000000000000000006001600160a01b0316906370a0823190602401602060405180830381865afa158015620006a2573d6000803e3d6000fd5b505050506040513d601f19601f82011682018060405250810190620006c8919062000d25565b905090565b620006d762000916565b828114620007345760405162461bcd60e51b815260206004820152602360248201527f456d706c6f796565202d2053616c6172792c206c656e676874206d6973736d616044820152620e8c6d60eb1b606482015260840162000353565b60005b838110156200089057600085858381811062000757576200075762000c2c565b90506020020160208101906200076e919062000a07565b9050600084848481811062000787576200078762000c2c565b6001600160a01b0385166000908152600260209081526040909120549102929092013592505015620007fc5760405162461bcd60e51b815260206004820152601a60248201527f4475706c69636174656420656d706c6f796565205265636f7264000000000000604482015260640162000353565b6103eb546001600160a01b038316600090815260016020526040902081905582906003906103e8811062000834576200083462000c2c565b0180546001600160a01b0319166001600160a01b03928316179055821660009081526002602052604081208290556103eb805491620008738362000c94565b919050555050508080620008879062000c94565b91505062000737565b5050505050565b620008a162000916565b6001600160a01b038116620009085760405162461bcd60e51b815260206004820152602660248201527f4f776e61626c653a206e6577206f776e657220697320746865207a65726f206160448201526564647265737360d01b606482015260840162000353565b620009138162000972565b50565b6000546001600160a01b03163314620004555760405162461bcd60e51b815260206004820181905260248201527f4f776e61626c653a2063616c6c6572206973206e6f7420746865206f776e6572604482015260640162000353565b600080546001600160a01b038381166001600160a01b0319831681178455604051919092169283917f8be0079c531659141344cd1fd0a4f28419497f9722a3daafe3b4186f6b6457e09190a35050565b6113548062000d4083390190565b600060208284031215620009e357600080fd5b5035919050565b80356001600160a01b038116811462000a0257600080fd5b919050565b60006020828403121562000a1a57600080fd5b62000a2582620009ea565b9392505050565b80151581146200091357600080fd5b634e487b7160e01b600052604160045260246000fd5b600080600080600060a0868803121562000a6a57600080fd5b62000a7586620009ea565b9450602062000a86818801620009ea565b945060408701359350606087013562000a9f8162000a2c565b9250608087013567ffffffffffffffff8082111562000abd57600080fd5b818901915089601f83011262000ad257600080fd5b81358181111562000ae75762000ae762000a3b565b8060051b604051601f19603f8301168101818110858211171562000b0f5762000b0f62000a3b565b60405291825284820192508381018501918c83111562000b2e57600080fd5b938501935b8285101562000b575762000b4785620009ea565b8452938501939285019262000b33565b8096505050505050509295509295909350565b60008083601f84011262000b7d57600080fd5b50813567ffffffffffffffff81111562000b9657600080fd5b6020830191508360208260051b850101111562000bb257600080fd5b9250929050565b6000806000806040858703121562000bd057600080fd5b843567ffffffffffffffff8082111562000be957600080fd5b62000bf78883890162000b6a565b9096509450602087013591508082111562000c1157600080fd5b5062000c208782880162000b6a565b95989497509550505050565b634e487b7160e01b600052603260045260246000fd5b60006020828403121562000c5557600080fd5b815162000a258162000a2c565b634e487b7160e01b600052601160045260246000fd5b8181038181111562000c8e5762000c8e62000c62565b92915050565b60006001820162000ca95762000ca962000c62565b5060010190565b600060a0820160018060a01b038089168452602081891681860152876040860152861515606086015260a0608086015282865180855260c087019150828801945060005b8181101562000d1457855185168352948301949183019160010162000cf4565b50909b9a5050505050505050505050565b60006020828403121562000d3857600080fd5b505191905056fe60e06040523480156200001157600080fd5b5060405162001354380380620013548339810160408190526200003491620002f3565b6200003f3362000193565b6001600160a01b0384166200009b5760405162461bcd60e51b815260206004820152601c60248201527f5553444320616464726573732063616e6e6f74206265207a65726f2e0000000060448201526064015b60405180910390fd5b60008311620000ed5760405162461bcd60e51b815260206004820152601f60248201527f476f616c206d7573742062652067726561746572207468616e207a65726f2e00604482015260640162000092565b6001600160a01b03841660805260a08390528115801560c0526200017d5760005b81518110156200017b5760016103ed600084848151811062000134576200013462000410565b6020908102919091018101516001600160a01b03168252810191909152604001600020805460ff191691151591909117905580620001728162000426565b9150506200010e565b505b6200018885620001e3565b50505050506200044e565b600080546001600160a01b038381166001600160a01b0319831681178455604051919092169283917f8be0079c531659141344cd1fd0a4f28419497f9722a3daafe3b4186f6b6457e09190a35050565b620001ed62000262565b6001600160a01b038116620002545760405162461bcd60e51b815260206004820152602660248201527f4f776e61626c653a206e6577206f776e657220697320746865207a65726f206160448201526564647265737360d01b606482015260840162000092565b6200025f8162000193565b50565b6000546001600160a01b03163314620002be5760405162461bcd60e51b815260206004820181905260248201527f4f776e61626c653a2063616c6c6572206973206e6f7420746865206f776e6572604482015260640162000092565b565b80516001600160a01b0381168114620002d857600080fd5b919050565b634e487b7160e01b600052604160045260246000fd5b600080600080600060a086880312156200030c57600080fd5b6200031786620002c0565b9450602062000328818801620002c0565b945060408701519350606087015180151581146200034557600080fd5b60808801519093506001600160401b03808211156200036357600080fd5b818901915089601f8301126200037857600080fd5b8151818111156200038d576200038d620002dd565b8060051b604051601f19603f83011681018181108582111715620003b557620003b5620002dd565b60405291825284820192508381018501918c831115620003d457600080fd5b938501935b82851015620003fd57620003ed85620002c0565b84529385019392850192620003d9565b8096505050505050509295509295909350565b634e487b7160e01b600052603260045260246000fd5b6000600182016200044757634e487b7160e01b600052601160045260246000fd5b5060010190565b60805160a05160c051610ea5620004af600039600081816101e2015281816102d6015281816103d8015261072b01526000818161019101526106a3015260008181610152015281816104f50152818161056c01526107bc0152610ea56000f3fe608060405234801561001057600080fd5b506004361061010b5760003560e01c80637f649783116100a2578063bf3e394e11610071578063bf3e394e1461028c578063c1cbbca714610294578063c5c4744c146102a7578063d7e64c00146102b0578063f2fde38b146102b957600080fd5b80637f649783146102315780638da5cb5b146102445780639b19251a14610255578063b50a95751461027957600080fd5b80634b319713116100de5780634b319713146101d457806351fb012d146101dd578063548db17414610214578063715018a61461022957600080fd5b806321eff7fc146101105780633e413bee1461014d578063401938831461018c57806342e94c90146101b3575b600080fd5b61013a61011e366004610ca5565b6001600160a01b031660009081526103ec602052604090205490565b6040519081526020015b60405180910390f35b6101747f000000000000000000000000000000000000000000000000000000000000000081565b6040516001600160a01b039091168152602001610144565b61013a7f000000000000000000000000000000000000000000000000000000000000000081565b61013a6101c1366004610ca5565b6103ec6020526000908152604090205481565b61013a60025481565b6102047f000000000000000000000000000000000000000000000000000000000000000081565b6040519015158152602001610144565b610227610222366004610cd5565b6102cc565b005b6102276103ba565b61022761023f366004610cd5565b6103ce565b6000546001600160a01b0316610174565b610204610263366004610ca5565b6103ed6020526000908152604090205460ff1681565b610174610287366004610d4a565b6104b2565b61013a6104d3565b6102276102a2366004610d4a565b61063a565b61013a60015481565b61013a60035481565b6102276102c7366004610ca5565b6108bd565b6102d4610936565b7f00000000000000000000000000000000000000000000000000000000000000006103425760405162461bcd60e51b81526020600482015260196024820152782bb434ba32b634b9ba1034b9903737ba1032b730b13632b21760391b60448201526064015b60405180910390fd5b60005b818110156103b55760006103ed600085858581811061036657610366610d63565b905060200201602081019061037b9190610ca5565b6001600160a01b031681526020810191909152604001600020805460ff1916911515919091179055806103ad81610d8f565b915050610345565b505050565b6103c2610936565b6103cc6000610990565b565b6103d6610936565b7f000000000000000000000000000000000000000000000000000000000000000061043f5760405162461bcd60e51b81526020600482015260196024820152782bb434ba32b634b9ba1034b9903737ba1032b730b13632b21760391b6044820152606401610339565b60005b818110156103b55760016103ed600085858581811061046357610463610d63565b90506020020160208101906104789190610ca5565b6001600160a01b031681526020810191909152604001600020805460ff1916911515919091179055806104aa81610d8f565b915050610442565b6004816103e881106104c357600080fd5b01546001600160a01b0316905081565b60006104dd610936565b6040516370a0823160e01b81523060048201526000907f00000000000000000000000000000000000000000000000000000000000000006001600160a01b0316906370a0823190602401602060405180830381865afa158015610544573d6000803e3d6000fd5b505050506040513d601f19601f820116820180604052508101906105689190610da8565b90507f00000000000000000000000000000000000000000000000000000000000000006001600160a01b031663a9059cbb6105ab6000546001600160a01b031690565b6040516001600160e01b031960e084901b1681526001600160a01b039091166004820152602481018490526044016020604051808303816000875af11580156105f8573d6000803e3d6000fd5b505050506040513d601f19601f8201168201806040525081019061061c9190610dc1565b50806002600082825461062f9190610de3565b909155509091505090565b600081116106a15760405162461bcd60e51b815260206004820152602e60248201527f436f6e747269627574696f6e20616d6f756e74206d757374206265206772656160448201526d3a32b9103a3430b7103d32b9379760911b6064820152608401610339565b7f0000000000000000000000000000000000000000000000000000000000000000816001546106d09190610de3565b11156107295760405162461bcd60e51b815260206004820152602260248201527f436f6e747269627574696f6e20657863656564732066756e64696e6720676f61604482015261361760f11b6064820152608401610339565b7f0000000000000000000000000000000000000000000000000000000000000000156107af573360009081526103ed602052604090205460ff166107af5760405162461bcd60e51b815260206004820152601c60248201527f496e766573746f72206973206e6f742077686974656c69737465642e000000006044820152606401610339565b6107e46001600160a01b037f0000000000000000000000000000000000000000000000000000000000000000163330846109e0565b3360009081526103ec60205260408120549003610847573360046003546103e8811061081257610812610d63565b0180546001600160a01b0319166001600160a01b03929092169190911790556003805490600061084183610d8f565b91905055505b3360009081526103ec602052604081208054839290610867908490610de3565b9250508190555080600160008282546108809190610de3565b909155505060405181815233907f4d154d4aae216bed6d0926db77c00df2b57c6b5ba4eee05775de20facede3a7b9060200160405180910390a250565b6108c5610936565b6001600160a01b03811661092a5760405162461bcd60e51b815260206004820152602660248201527f4f776e61626c653a206e6577206f776e657220697320746865207a65726f206160448201526564647265737360d01b6064820152608401610339565b61093381610990565b50565b6000546001600160a01b031633146103cc5760405162461bcd60e51b815260206004820181905260248201527f4f776e61626c653a2063616c6c6572206973206e6f7420746865206f776e65726044820152606401610339565b600080546001600160a01b038381166001600160a01b0319831681178455604051919092169283917f8be0079c531659141344cd1fd0a4f28419497f9722a3daafe3b4186f6b6457e09190a35050565b604080516001600160a01b0385811660248301528416604482015260648082018490528251808303909101815260849091019091526020810180516001600160e01b03166323b872dd60e01b179052610a3a908590610a40565b50505050565b6000610a95826040518060400160405280602081526020017f5361666545524332303a206c6f772d6c6576656c2063616c6c206661696c6564815250856001600160a01b0316610b159092919063ffffffff16565b9050805160001480610ab6575080806020019051810190610ab69190610dc1565b6103b55760405162461bcd60e51b815260206004820152602a60248201527f5361666545524332303a204552433230206f7065726174696f6e20646964206e6044820152691bdd081cdd58d8d9595960b21b6064820152608401610339565b6060610b248484600085610b2c565b949350505050565b606082471015610b8d5760405162461bcd60e51b815260206004820152602660248201527f416464726573733a20696e73756666696369656e742062616c616e636520666f6044820152651c8818d85b1b60d21b6064820152608401610339565b600080866001600160a01b03168587604051610ba99190610e20565b60006040518083038185875af1925050503d8060008114610be6576040519150601f19603f3d011682016040523d82523d6000602084013e610beb565b606091505b5091509150610bfc87838387610c07565b979650505050505050565b60608315610c76578251600003610c6f576001600160a01b0385163b610c6f5760405162461bcd60e51b815260206004820152601d60248201527f416464726573733a2063616c6c20746f206e6f6e2d636f6e74726163740000006044820152606401610339565b5081610b24565b610b248383815115610c8b5781518083602001fd5b8060405162461bcd60e51b81526004016103399190610e3c565b600060208284031215610cb757600080fd5b81356001600160a01b0381168114610cce57600080fd5b9392505050565b60008060208385031215610ce857600080fd5b823567ffffffffffffffff80821115610d0057600080fd5b818501915085601f830112610d1457600080fd5b813581811115610d2357600080fd5b8660208260051b8501011115610d3857600080fd5b60209290920196919550909350505050565b600060208284031215610d5c57600080fd5b5035919050565b634e487b7160e01b600052603260045260246000fd5b634e487b7160e01b600052601160045260246000fd5b600060018201610da157610da1610d79565b5060010190565b600060208284031215610dba57600080fd5b5051919050565b600060208284031215610dd357600080fd5b81518015158114610cce57600080fd5b80820180821115610df657610df6610d79565b92915050565b60005b83811015610e17578181015183820152602001610dff565b50506000910152565b60008251610e32818460208701610dfc565b9190910192915050565b6020815260008251806020840152610e5b816040850160208701610dfc565b601f01601f1916919091016040019291505056fea2646970667358221220126e8bd83e5b40734ac0582fc92f43312d99b9727d46c7ec616894f6b4e60ebd64736f6c63430008110033a2646970667358221220491d482b12bda080e88246339f3d41e9d62c73ce556d67d4cdaee643e146da4564736f6c63430008110033a26469706673582212204e078fa7278d479091a9fe2e80f2b586f6f87c3a3c5a218f0c13cdcea8a82d2164736f6c63430008110033",
  "devdoc": {
    "details": "Factory contract to create instances of the Company contract.",
    "events": {
      "CompanyCreated(address)": {
        "params": {
          "company": "The address of the newly created Company contract."
        }
      }
    },
    "kind": "dev",
    "methods": {
      "createCompany(address,address)": {
        "params": {
          "_companyOwner": "Address in charge of administering holdings",
          "_holdingsToken": "Address of the token to manage liquidity"
        },
        "returns": {
          "company": "The address of the newly created Company contract."
        }
      },
      "getCompaniesCount()": {
        "returns": {
          "count": "The total number of created Company contracts."
        }
      },
      "getCompany(uint256)": {
        "params": {
          "index": "The index of the Company contract in the array."
        },
        "returns": {
          "company": "The address of the Company contract."
        }
      }
    },
    "title": "Cake",
    "version": 1
  },
  "userdoc": {
    "events": {
      "CompanyCreated(address)": {
        "notice": "Event emitted when a new Company is created."
      }
    },
    "kind": "user",
    "methods": {
      "createCompany(address,address)": {
        "notice": "Creates a new Company instance."
      },
      "getCompaniesCount()": {
        "notice": "Returns the total number of created Company instances."
      },
      "getCompany(uint256)": {
        "notice": "Returns the address of the Company contract at a specific index."
      }
    },
    "version": 1
  },
  "storageLayout": {
    "storage": [
      {
        "astId": 971,
        "contract": "contracts/Cak3.sol:Cak3",
        "label": "companies",
        "offset": 0,
        "slot": "0",
        "type": "t_mapping(t_uint256,t_address)"
      },
      {
        "astId": 973,
        "contract": "contracts/Cak3.sol:Cak3",
        "label": "companyCount",
        "offset": 0,
        "slot": "1",
        "type": "t_uint256"
      }
    ],
    "types": {
      "t_address": {
        "encoding": "inplace",
        "label": "address",
        "numberOfBytes": "20"
      },
      "t_mapping(t_uint256,t_address)": {
        "encoding": "mapping",
        "key": "t_uint256",
        "label": "mapping(uint256 => address)",
        "numberOfBytes": "32",
        "value": "t_address"
      },
      "t_uint256": {
        "encoding": "inplace",
        "label": "uint256",
        "numberOfBytes": "32"
      }
    }
  }
}